:100000000C942A000C9447000C9447000C94470071
:100010000C9447000C9447000C9447000C94470044
:100020000C9447000C9447000C9447000C94470034
:100030000C9447000C9447000C9447000C94470024
:100040000C9447000C9447000C9447000C94470014
:100050000C94470011241FBECFE5D8E0DEBFCDBF12
:1000600010E0A0E6B0E0ECEBFDE002C005900D92E0
:10007000A239B107D9F720E0A2E9B0E001C01D9292
:10008000A43AB207E1F70E94D9000C94DC060C9464
:100090000000CF93DF9300D000D0CDB7DEB7198238
:1000A0001A821B821C82092E000CAA0BBB0B4981F1
:1000B0005A816B817C81481759076A077B07D8F4FE
:1000C000EFECF7E03197F1F700C0000049815A8169
:1000D0006B817C814F5F5F4F6F4F7F4F49835A83A6
:1000E0006B837C8349815A816B817C8148175907D6
:1000F0006A077B0728F30F900F900F900F90DF9106
:10010000CF910895A898A998AA9A88E382BBAA9843
:100110008FEE90E00197F1F700C00000AA9A8EE000
:1001200082BBAA988FEE90E00197F1F700C0000023
:10013000AA9A86E082BBAA988FEE90E00197F1F729
:1001400000C000000895A898A998AA9A81E082BBEF
:10015000AA9888E790E00E9449000895A89AA99873
:10016000AA9A82BBAA988FEE90E00197F1F700C09F
:1001700000000895CF93DF93D82FC62FA898A99891
:10018000AA9A81E090E00E94490080E4D89FC00DC7
:100190001124C15CC2BB81E090E00E944900AA9892
:1001A0008FEE90E00197F1F700C00000DF91CF9152
:1001B0000895CF93DF93CDB7DEB760970FB6F8946D
:1001C000DEBF0FBECDBF8FEF81BB12BA84BB15BAA5
:1001D00017BA88BB88E184BB2FEF44E38CE0215041
:1001E00040408040E1F700C000000E9482000E9471
:1001F000A30080E487B980EE86B90F2EFAE0AF2E17
:10020000B12CF02D0F2EF8E22F2E312CF02D0F2EC9
:10021000F4E66F2EF0E07F2EF02DFE0131964F01B7
:100220006E01F1E1CF0ED11C0F2EFBE74F2EF0E057
:100230005F2EF02D369A3699FECF64B175B180E00D
:1002400090E00E94CF0260939A0070939B0080938D
:100250009C0090939D0020E030EC4FE754E40E9416
:10026000270220E030E04AE754E40E945D030E9448
:1002700099027093990060939800CB01B5010E9498
:10028000CA037093970060939600909395008093B3
:1002900094002091620030916300261B370B30934D
:1002A000A3002093A200C901B5010E94CA03709364
:1002B000A1006093A00090939F0080939E006091A6
:1002C00060007091610088279927861B970B0AF4BC
:1002D000019695958795281739072CF4109293006D
:1002E00010929200B1C0CB0177230CF40196959542
:1002F0008795281739073CF084E190E090939300AC
:1003000080939200A1C0280F391FE3E1E29FC00152
:10031000E39F900D11240E94CA036F5F7F4F70937B
:1003200093006093920090C080919200909193000E
:100330000817190724F4892B11F0AB9A01C0AB9868
:10034000C5010E9449000F5F1F4F0431110561F77D
:10035000B09906C082E390E09093630080936200BE
:10036000B19904C0309263002092620086B383701A
:1003700031F4EEE1F0E0F0936100E0936000B299B7
:1003800004C0309261002092600061E070E081E082
:1003900090E00E94BA00809195008F938091940024
:1003A0008F93809197008F93809196008F93809187
:1003B00063008F93809162008F937F926F929F92E0
:1003C0008F920E94F20384010FB6F894DEBF0FBE35
:1003D000CDBF7401F70181917F0190E00E94AE00D2
:1003E000CE14DF04B9F761E070E082E090E00E9493
:1003F000BA0080919F008F9380919E008F9380918F
:10040000A3008F938091A2008F93809161008F93BE
:10041000809160008F935F924F929F928F920E9483
:10042000F2030FB6F894DEBF0FBECDBFF801819185
:100430008F0190E00E94AE00C016D106B9F784E6A5
:1004400090E00E944900F6CE00E010E06DCF0E94DF
:100450003B020C9423030E941C0358F00E941503D6
:1004600040F029F45F3F29F00C940C0351110C94D7
:1004700057030C9412030E94340368F39923B1F3D9
:10048000552391F3951B550BBB27AA2762177307BA
:10049000840738F09F5F5F4F220F331F441FAA1F4E
:1004A000A9F335D00E2E3AF0E0E832D0915050400A
:1004B000E695001CCAF72BD0FE2F29D0660F771FB8
:1004C000881FBB1F261737074807AB07B0E809F09E
:1004D000BB0B802DBF01FF2793585F4F3AF09E3F23
:1004E000510578F00C940C030C9457035F3FE4F330
:1004F000983ED4F3869577956795B795F7959F5F66
:10050000C9F7880F911D9695879597F90895E1E0B1
:10051000660F771F881FBB1F621773078407BA0710
:1005200020F0621B730B840BBA0BEE1F88F7E0956B
:1005300008950E94A0026894B1110C945703089585
:100540000E943C0388F09F5798F0B92F9927B75124
:10055000B0F0E1F0660F771F881F991F1AF0BA9567
:10056000C9F714C0B13091F00E945603B1E008956C
:100570000C945603672F782F8827B85F39F0B93F5E
:10058000CCF3869577956795B395D9F73EF490951A
:100590008095709561957F4F8F4F9F4F0895E89498
:1005A00009C097FB3EF490958095709561957F4FBB
:1005B0008F4F9F4F9923A9F0F92F96E9BB27939569
:1005C000F695879577956795B795F111F8CFFAF479
:1005D000BB0F11F460FF1BC06F5F7F4F8F4F9F4FAA
:1005E00016C0882311F096E911C0772321F09EE808
:1005F000872F762F05C0662371F096E8862F70E06E
:1006000060E02AF09A95660F771F881FDAF7880F47
:100610009695879597F9089597F99F6780E870E018
:1006200060E008959FEF80EC089500240A94161668
:10063000170618060906089500240A9412161306D0
:10064000140605060895092E0394000C11F488235E
:1006500052F0BB0F40F4BF2B11F460FF04C06F5F7A
:100660007F4F8F4F9F4F089557FD9058440F551F50
:1006700059F05F3F71F04795880F97FB991F61F024
:100680009F3F79F087950895121613061406551F9B
:10069000F2CF4695F1DF08C0161617061806991F07
:1006A000F1CF86957105610508940895E894BB27FC
:1006B00066277727CB0197F908950E9470030C9461
:1006C00023030E94150338F00E941C0320F0952399
:1006D00011F00C940C030C94120311240C94570386
:1006E0000E94340370F3959FC1F3950F50E0551F9E
:1006F000629FF001729FBB27F00DB11D639FAA2777
:10070000F00DB11DAA1F649F6627B00DA11D661FC5
:10071000829F2227B00DA11D621F739FB00DA11DE6
:10072000621F839FA00D611D221F749F3327A00DA0
:10073000611D231F849F600D211D822F762F6A2F3C
:1007400011249F5750409AF0F1F088234AF0EE0FA1
:10075000FF1FBB1F661F771F881F91505040A9F7CE
:100760009E3F510580F00C940C030C9457035F3F9F
:10077000E4F3983ED4F3869577956795B795F7950A
:10078000E7959F5FC1F7FE2B880F911D9695879582
:1007900097F9089597FB072E16F4009407D077FD7C
:1007A00009D00E94DE0307FC05D03EF490958195A8
:1007B0009F4F0895709561957F4F0895AA1BBB1BAD
:1007C00051E107C0AA1FBB1FA617B70710F0A61B51
:1007D000B70B881F991F5A95A9F780959095BC0172
:1007E000CD010895AEE0B0E0E8EFF3E00C94B3067D
:1007F0000D891E8986E08C831A8309838FEF9FE71A
:100800009E838D83AE01475E5F4F6F89788DCE01E9
:1008100001960E941404EF81F885E00FF11F108209
:100820002E96E4E00C94CF06ABE0B0E0EAE1F4E011
:100830000C94A5066C017B018A01FC0117821682CB
:10084000838181FFCCC1CE0101963C01F6019381E9
:10085000F70193FD859193FF81917F01882309F42E
:10086000BAC1853239F493FD859193FF81917F015F
:10087000853229F4B60190E00E940B06E7CF912C57
:10088000212C312CFFE1F315D8F08B3279F038F4BC
:10089000803279F08332A1F4232D20611DC08D3286
:1008A00061F0803369F4232D216016C0832D8260AE
:1008B000382EE32DE4603E2E2AC0F32DF8601DC0D3
:1008C00037FC2DC020ED280F2A3040F08E32B9F4CD
:1008D00036FC81C1232D2064322E19C036FE06C09D
:1008E0008AE0989E200D1124922E11C0EAE02E9EDF
:1008F000200D1124222EF32DF0623F2E08C08C36DD
:1009000021F4832D8068382E02C0883641F4F70127
:1009100093FD859193FF81917F018111B3CF982F32
:100920009F7D9554933028F40C5F1F4F9FE399836C
:100930000DC0833631F0833771F0833509F059C02B
:1009400021C0F801808189830E5F1F4F8824839422
:10095000912C530113C02801F2E04F0E511CF801F5
:10096000A080B18036FE03C0692D70E002C06FEF39
:100970007FEFC5010E9400064C018201F32DFF7735
:100980003F2E16C0280122E0420E511CF801A08023
:10099000B18036FE03C0692D70E002C06FEF7FEFBB
:1009A000C5010E94F5054C01F32DF0683F2E820130
:1009B00033FC1BC0822D90E088169906B0F4B60176
:1009C00080E290E00E940B062A94F4CFF50137FCF8
:1009D000859137FE81915F01B60190E00E940B0680
:1009E00021102A9421E0821A91088114910471F750
:1009F000E8C0843611F0893641F5F80137FE07C0AA
:100A000060817181828193810C5F1F4F08C060817A
:100A10007181072E000C880B990B0E5F1F4FF32D71
:100A2000FF763F2E97FF09C0909580957095619550
:100A30007F4F8F4F9F4FF0683F2E2AE030E0A30199
:100A40000E944706882E861845C0853731F4232D2D
:100A50002F7EB22E2AE030E025C0932D997FB92E4B
:100A60008F36C1F018F4883579F0B5C0803719F0A9
:100A7000883721F0B0C0E92FE061BE2EB4FE0DC072
:100A8000FB2DF460BF2E09C034FE0AC0292F26605A
:100A9000B22E06C028E030E005C020E130E002C000
:100AA00020E132E0F801B7FE07C0608171818281E8
:100AB00093810C5F1F4F06C06081718180E090E0E0
:100AC0000E5F1F4FA3010E944706882E8618FB2D3C
:100AD000FF773F2E36FE0DC0232D2E7FA22E8914C8
:100AE00058F434FE0BC032FC09C0832D8E7EA82E34
:100AF00005C0B82CA32C03C0B82C01C0B92CA4FE8F
:100B00000FC0FE01E80DF11D8081803321F49A2D84
:100B1000997EA92E09C0A2FE06C0B394B39404C066
:100B20008A2D867809F0B394A3FC11C0A0FE06C0FC
:100B3000B21488F4280C922C9B180EC0B21460F4E6
:100B4000B60180E290E00E940B06B394F7CFB21496
:100B500018F42B1802C0982C212CA4FE10C0B6014A
:100B600080E390E00E940B06A2FE17C0A1FC03C028
:100B700088E790E002C088E590E0B6010CC08A2DBD
:100B8000867859F0A1FE02C08BE201C080E2A7FC8A
:100B90008DE2B60190E00E940B06891438F4B6018C
:100BA00080E390E00E940B069A94F7CF8A94F301B9
:100BB000E80DF11D8081B60190E00E940B068110C6
:100BC000F5CF222009F442CEB60180E290E00E94E7
:100BD0000B062A94F6CFF6018681978102C08FEF2B
:100BE0009FEF2B96E2E10C94C106FC010590615049
:100BF00070400110D8F7809590958E0F9F1F089533
:100C0000FC016150704001900110D8F780959095DB
:100C10008E0F9F1F08950F931F93CF93DF93FB01B8
:100C2000238121FD03C08FEF9FEF2CC022FF16C050
:100C300046815781248135814217530744F4A081AE
:100C4000B1819D012F5F3F4F318320838C9326819B
:100C500037812F5F3F4F3783268314C08B01EC0110
:100C6000FB010084F185E02D0995892BE1F6D8017F
:100C700016968D919C911797019617969C938E933B
:100C80001697CE01DF91CF911F910F910895FA0130
:100C9000AA27283051F1203181F1E8946F936E7FBB
:100CA0006E5F7F4F8F4F9F4FAF4FB1E03ED0B4E0AC
:100CB0003CD0670F781F891F9A1FA11D680F791FED
:100CC0008A1F911DA11D6A0F711D811D911DA11DFE
:100CD00020D009F468943F912AE0269F112430190E
:100CE000305D3193DEF6CF010895462F4770405DA9
:100CF0004193B3E00FD0C9F7F6CF462F4F70405D58
:100D00004A3318F0495D31FD4052419302D0A9F7B2
:100D1000EACFB4E0A6959795879577956795BA95AC
:100D2000C9F700976105710508959B01AC010A2E72
:100D300006945795479537952795BA95C9F7620F49
:100D4000731F841F951FA01D08952F923F924F92ED
:100D50005F926F927F928F929F92AF92BF92CF924B
:100D6000DF92EF92FF920F931F93CF93DF93CDB754
:100D7000DEB7CA1BDB0B0FB6F894DEBF0FBECDBFCC
:100D800009942A88398848885F846E847D848C849D
:100D90009B84AA84B984C884DF80EE80FD800C81A6
:100DA0001B81AA81B981CE0FD11D0FB6F894DEBF89
:0C0DB0000FBECDBFED010895F894FFCFF9
:100DBC002800320053503D25326425252050563DE5
:100DCC002532642E2531642525200058503D2532CE
:100DDC0064252520453D2533642E253164252520A9
:020DEC002000E5
:00000001FF
