:100000000C942A000C9434000C9434000C943400AA
:100010000C9434000C9434000C9434000C94340090
:100020000C9434000C9434000C9434000C94340080
:100030000C9434000C9434000C9434000C94340070
:100040000C9434000C9434000C9434000C94340060
:100050000C94340011241FBECFE5D8E0DEBFCDBF25
:100060000E947F000C949B000C9400000F931F9340
:10007000CF93DF9300D000D0CDB7DEB719821A82BC
:100080001B821C8209811A812B813C81061717076C
:100090002807390798F4EFECF7E03197F1F700C043
:1000A000000009811A812B813C810F5F1F4F2F4F68
:1000B0003F4F09831A832B833C83E4CF0F900F902B
:1000C0000F900F90DF91CF911F910F910895813084
:1000D00071F492B380E4892782BB2FEF89E698E11F
:1000E000215080409040E1F700C000000895823028
:1000F00011F4969A0895833009F4969808958FEF35
:1001000081BBB898C09A969AC1E0B09904C0CF5FFD
:10011000C43008F0C1E0DFEFDC0FB09908C0C13097
:1001200011F483E001C08D2F0E946700F6CF8C2F61
:0A0130000E946700EACFF894FFCFA9
:00000001FF
