:100000000C942A000C943F000C943F000C943F0089
:100010000C943F000C943F000C943F000C943F0064
:100020000C943F000C943F000C943F000C943F0054
:100030000C943F000C943F000C943F000C943F0044
:100040000C943F000C943F000C943F000C943F0034
:100050000C943F0011241FBECFE5D8E0DEBFCDBF1A
:1000600010E0A0E6B0E0E8EDF0E002C005900D92EF
:10007000AC36B107D9F70E9441000C946A000C9489
:100080000000CF93DF93CDB7DEB72C970FB6F8946F
:10009000DEBF0FBECDBF8FEF81BB82BB8CE0E0E641
:1000A000F0E0DE01119601900D928A95E1F7CE0104
:1000B0000D96FE013196219122BB2FEF34E34CE0E7
:1000C000215030404040E1F700C00000E817F90738
:0800D00091F7EFCFF894FFCF88
:0C00D80003060C183060C06030180C06E5
:00000001FF
