:100000000C942A000C9447000C9447000C94470071
:100010000C9447000C9447000C9447000C94470044
:100020000C9447000C9447000C9447000C94470034
:100030000C9447000C9447000C9447000C94470024
:100040000C9447000C9447000C9447000C94470014
:100050000C94470011241FBECFE5D8E0DEBFCDBF12
:1000600010E0A0E6B0E0EAEEF9E002C005900D92E3
:10007000A439B107D9F720E0A4E9B0E001C01D928E
:10008000AC39B207E1F70E94FF000C94F3040C9422
:100090000000CF93DF9300D000D0CDB7DEB7198238
:1000A0001A821B821C82092E000CAA0BBB0B4981F1
:1000B0005A816B817C81481759076A077B0798F43E
:1000C000EFECF7E03197F1F700C0000049815A8169
:1000D0006B817C814F5F5F4F6F4F7F4F49835A83A6
:1000E0006B837C83E4CF0F900F900F900F90DF9184
:1000F000CF910895CF93DF9300D000D0CDB7DEB776
:1001000019821A821B821C82092E000CAA0BBB0BBF
:1001100049815A816B817C81481759076A077B079F
:1001200088F422E02A95F1F700C049815A816B8159
:100130007C814F5F5F4F6F4F7F4F49835A836B8343
:100140007C83E6CF0F900F900F900F90DF91CF91AF
:100150000895A898A998AA9A88E382BBAA988FEED6
:1001600090E00197F1F700C00000AA9A8EE082BBF0
:10017000AA988FEE90E00197F1F700C00000AA9ACC
:1001800086E082BBAA988FEE90E00197F1F700C05D
:1001900000000895A898A998AA9A81E082BBAA981D
:1001A00088E790E00C944900A89AA998AA9A82BB83
:1001B000AA988FEE90E00197F1F700C00000089533
:1001C000CF93DF93D82FC62FA898A998AA9A81E039
:1001D00090E00E94490080E4D89FC00D1124C15CCA
:1001E000C2BB81E090E00E944900AA988FEE90E0A7
:1001F0000197F1F700C00000DF91CF910895CF93F0
:10020000DF93CDB7DEB760970FB6F894DEBF0FBEB1
:10021000CDBF8FEF81BB12BA84BB15BA17BA88BBAA
:100220002FEF44E36CE0215040406040E1F700C014
:1002300000000E94A9000E94CA0080E487B980EEF5
:1002400086B958E0252E312C6AE0462E512C74E6F2
:10025000672E70E0772E8E010F5F1F4F5E0181E1E8
:10026000A80EB11CECE78E2EE0E09E2E369A369951
:10027000FECF84B195B19093970080939600E4E609
:10028000E89F9001E99F300D112437FF02C02150F3
:100290003C4F432F45954595532F550F550B509384
:1002A0009B0040939A002091620030916300241BD0
:1002B000350B309395002093940066EF6403F001B2
:1002C000659FF00D11248E0F9F1F909399008093CE
:1002D0009800809160009091610097FD019695953E
:1002E00087958217930714F480E285BB80916000A4
:1002F0009091610097FD01969595879591958195CF
:10030000910920919400309195002817390714F431
:100310009FED95BBB39906C0E2E3F0E0F093630074
:10032000E0936200B29906C088E290E09093630087
:1003300080936200B19904C0309261002092600005
:10034000B09904C0509261004092600061E070E09A
:1003500081E090E00E94E000809199008F9380916D
:1003600098008F9380919B008F9380919A008F9338
:10037000809163008F93809162008F937F926F9240
:100380001F930F930E94090278010FB6F894DEBF05
:100390000FBECDBF6801F60181916F01082E000CE0
:1003A000990B0E94D400CA14DB04A9F761E070E045
:1003B00082E090E00E94E000809199008F9380910C
:1003C00098008F93809195008F93809194008F93E4
:1003D000809161008F93809160008F939F928F92A4
:1003E0001F930F930E9409020FB6F894DEBF0FBE51
:1003F000CDBFF70181917F01082E000C990B0E945F
:10040000D400EA14FB04A9F784EF91E00E944900AC
:100410002DCFAEE0B0E0EFE0F2E00C94CA040D891D
:100420001E8986E08C831A8309838FEF9FE79E8362
:100430008D83AE01475E5F4F6F89788DCE01019647
:100440000E942B02EF81F885E00FF11F10822E969B
:10045000E4E00C94E604ABE0B0E0E1E3F2E00C94FD
:10046000BC046C017B018A01FC0117821682838126
:1004700081FFCCC1CE0101963C01F6019381F701C9
:1004800093FD859193FF81917F01882309F4BAC17F
:10049000853239F493FD859193FF81917F018532F7
:1004A00029F4B60190E00E942204E7CF912C212C80
:1004B000312CFFE1F315D8F08B3279F038F480322B
:1004C00079F08332A1F4232D20611DC08D3261F0BB
:1004D000803369F4232D216016C0832D8260382E6D
:1004E000E32DE4603E2E2AC0F32DF8601DC037FCDA
:1004F0002DC020ED280F2A3040F08E32B9F436FCA2
:1005000081C1232D2064322E19C036FE06C08AE038
:10051000989E200D1124922E11C0EAE02E9E200DEF
:100520001124222EF32DF0623F2E08C08C3621F4C8
:10053000832D8068382E02C0883641F4F70193FD80
:10054000859193FF81917F018111B3CF982F9F7D7A
:100550009554933028F40C5F1F4F9FE399830DC08F
:10056000833631F0833771F0833509F059C021C0EB
:10057000F801808189830E5F1F4F88248394912C1A
:10058000530113C02801F2E04F0E511CF801A08066
:10059000B18036FE03C0692D70E002C06FEF7FEFBF
:1005A000C5010E9417044C018201F32DFF773F2EF5
:1005B00016C0280122E0420E511CF801A080B18033
:1005C00036FE03C0692D70E002C06FEF7FEFC501FA
:1005D0000E940C044C01F32DF0683F2E820133FC85
:1005E0001BC0822D90E088169906B0F4B60180E217
:1005F00090E00E9422042A94F4CFF50137FC859103
:1006000037FE81915F01B60190E00E942204211023
:100610002A9421E0821A91088114910471F7E8C0AC
:10062000843611F0893641F5F80137FE07C0608144
:100630007181828193810C5F1F4F08C0608171813D
:10064000072E000C880B990B0E5F1F4FF32DFF76C2
:100650003F2E97FF09C090958095709561957F4FCB
:100660008F4F9F4FF0683F2E2AE030E0A3010E9499
:100670005E04882E861845C0853731F4232D2F7EE1
:10068000B22E2AE030E025C0932D997FB92E8F3607
:10069000C1F018F4883579F0B5C0803719F0883783
:1006A00021F0B0C0E92FE061BE2EB4FE0DC0FB2DDD
:1006B000F460BF2E09C034FE0AC0292F2660B22E76
:1006C00006C028E030E005C020E130E002C020E1B3
:1006D00032E0F801B7FE07C06081718182819381A9
:1006E0000C5F1F4F06C06081718180E090E00E5F5B
:1006F0001F4FA3010E945E04882E8618FB2DFF77F2
:100700003F2E36FE0DC0232D2E7FA22E891458F4C5
:1007100034FE0BC032FC09C0832D8E7EA82E05C08E
:10072000B82CA32C03C0B82C01C0B92CA4FE0FC058
:10073000FE01E80DF11D8081803321F49A2D997E10
:10074000A92E09C0A2FE06C0B394B39404C08A2D9A
:10075000867809F0B394A3FC11C0A0FE06C0B214C1
:1007600088F4280C922C9B180EC0B21460F4B601C9
:1007700080E290E00E942204B394F7CFB21418F400
:100780002B1802C0982C212CA4FE10C0B60180E3C7
:1007900090E00E942204A2FE17C0A1FC03C088E7DB
:1007A00090E002C088E590E0B6010CC08A2D867802
:1007B00059F0A1FE02C08BE201C080E2A7FC8DE2ED
:1007C000B60190E00E942204891438F4B60180E357
:1007D00090E00E9422049A94F7CF8A94F301E80DE6
:1007E000F11D8081B60190E00E9422048110F5CFB6
:1007F000222009F442CEB60180E290E00E94220459
:100800002A94F6CFF6018681978102C08FEF9FEF81
:100810002B96E2E10C94D804FC01059061507040E5
:100820000110D8F7809590958E0F9F1F0895FC01B9
:100830006150704001900110D8F7809590958E0F0F
:100840009F1F08950F931F93CF93DF93FB01238185
:1008500021FD03C08FEF9FEF2CC022FF16C0468101
:100860005781248135814217530744F4A081B18117
:100870009D012F5F3F4F318320838C9326813781E9
:100880002F5F3F4F3783268314C08B01EC01FB01A0
:100890000084F185E02D0995892BE1F6D8011696A3
:1008A0008D919C911797019617969C938E9316970E
:1008B000CE01DF91CF911F910F910895FA01AA27E0
:1008C000283051F1203181F1E8946F936E7F6E5F93
:1008D0007F4F8F4F9F4FAF4FB1E03ED0B4E03CD041
:1008E000670F781F891F9A1FA11D680F791F8A1F24
:1008F000911DA11D6A0F711D811D911DA11D20D08B
:1009000009F468943F912AE0269F11243019305D44
:100910003193DEF6CF010895462F4770405D419335
:10092000B3E00FD0C9F7F6CF462F4F70405D4A3382
:1009300018F0495D31FD4052419302D0A9F7EACF4A
:10094000B4E0A6959795879577956795BA95C9F779
:1009500000976105710508959B01AC010A2E06946C
:100960005795479537952795BA95C9F7620F731F25
:10097000841F951FA01D08952F923F924F925F9262
:100980006F927F928F929F92AF92BF92CF92DF929F
:10099000EF92FF920F931F93CF93DF93CDB7DEB704
:1009A000CA1BDB0B0FB6F894DEBF0FBECDBF099498
:1009B0002A88398848885F846E847D848C849B84EF
:1009C000AA84B984C884DF80EE80FD800C811B81FD
:1009D000AA81B981CE0FD11D0FB6F894DEBF0FBE2C
:0A09E000CDBFED010895F894FFCF9C
:1009EA000800280053503D2532642050563D2533D7
:1009FA00642E25316425252077777700483D2532F6
:100A0A006420453D2533642E253164252577777783
:040A1A0077770000EA
:00000001FF
