:100000000C942A000C9434000C9434000C943400AA
:100010000C9434000C9434000C9434000C94340090
:100020000C9434000C9434000C9434000C94340080
:100030000C9434000C9434000C9434000C94340070
:100040000C9434000C9434000C9434000C94340060
:100050000C94340011241FBECFE5D8E0DEBFCDBF25
:100060000E9467000C9487000C9400000F931F936C
:10007000CF93DF9300D000D0CDB7DEB719821A82BC
:100080001B821C8209811A812B813C81061717076C
:100090002807390798F4EFECF7E03197F1F700C043
:1000A000000009811A812B813C810F5F1F4F2F4F68
:1000B0003F4F09831A832B833C83E4CF0F900F902B
:1000C0000F900F90DF91CF911F910F9108958FEFB7
:1000D00081BB83E082BBC7E0D0E0219751F068ECA0
:1000E00070E080E090E00E94360082B3880F82BB0F
:1000F000F4CFC7E0D0E0219771F368EC70E080E0C6
:1001000090E00E94360082B3869582BBF4CFF894CB
:02011000FFCF1F
:00000001FF
