:100000000C942A000C9447000C9447000C94470071
:100010000C9447000C9447000C9447000C94470044
:100020000C9447000C9447000C9447000C94470034
:100030000C9447000C9447000C9447000C94470024
:100040000C9447000C9447000C9447000C94470014
:100050000C94470011241FBECFE5D8E0DEBFCDBF12
:1000600010E0A0E6B0E0E2E3FEE002C005900D92F1
:10007000AE38B107D9F720E0AEE8B0E001C01D927C
:10008000A03AB207E1F70E94FF000C9417070C9406
:100090000000CF93DF9300D000D0CDB7DEB7198238
:1000A0001A821B821C82092E000CAA0BBB0B4981F1
:1000B0005A816B817C81481759076A077B0798F43E
:1000C000EFECF7E03197F1F700C0000049815A8169
:1000D0006B817C814F5F5F4F6F4F7F4F49835A83A6
:1000E0006B837C83E4CF0F900F900F900F90DF9184
:1000F000CF910895CF93DF9300D000D0CDB7DEB776
:1001000019821A821B821C82092E000CAA0BBB0BBF
:1001100049815A816B817C81481759076A077B079F
:1001200088F422E02A95F1F700C049815A816B8159
:100130007C814F5F5F4F6F4F7F4F49835A836B8343
:100140007C83E6CF0F900F900F900F90DF91CF91AF
:100150000895A898A998AA9A88E382BBAA988FEED6
:1001600090E00197F1F700C00000AA9A8EE082BBF0
:10017000AA988FEE90E00197F1F700C00000AA9ACC
:1001800086E082BBAA988FEE90E00197F1F700C05D
:1001900000000895A898A998AA9A81E082BBAA981D
:1001A00088E790E00C944900A89AA998AA9A82BB83
:1001B000AA988FEE90E00197F1F700C00000089533
:1001C000CF93DF93D82FC62FA898A998AA9A81E039
:1001D00090E00E94490080E4D89FC00D1124C15CCA
:1001E000C2BB81E090E00E944900AA988FEE90E0A7
:1001F0000197F1F700C00000DF91CF910895CF93F0
:10020000DF93CDB7DEB760970FB6F894DEBF0FBEB1
:10021000CDBF8FEF81BB12BA84BB85BB17BA88BB39
:100220002FEF44E38CE0215040408040E1F700C0D4
:1002300000000E94A9000E94CA0080E487B980EEF5
:1002400086B96AE0E62EF12C72E3472E512C8E011E
:100250000F5F1F4F5E0191E1A90EB11CE9E72E2E41
:10026000E0E03E2E369A3699FECF64B175B180E05B
:1002700090E00E9432036093920070939300809309
:1002800094009093950020E030EC4FE754E40E94F6
:100290008A0220E030E04AE754E40E94C0030E9452
:1002A000FC023B014C017093970060939600CB01D8
:1002B000B7010E94620270939D0060939C0090932E
:1002C0009B0080939A002091620030916300EAE0E5
:1002D000E29FC001E39F900D11249C01261937096C
:1002E0003093910020939000C901B7010E946202EF
:1002F00070939F0060939E00909399008093980064
:100300008091600090916100880F991F90938F00F9
:1003100080938E008217930714F4F7EFF5BB80915A
:100320008E0090918F0097FD01969595879520916D
:100330009000309191002817390714F428E025BB6C
:1003400080918E0090918F0097FD019695958795ED
:100350002091600030916100821B930B20919000EE
:10036000309191002817390714F48FEE85BB8091E6
:100370008E0090918F0097FD0196959587959195A8
:1003800081959109209190003091910082179307F7
:1003900014F480E185BBB39904C05092630040928D
:1003A0006200B29906C088E290E090936300809367
:1003B0006200B1990CC0E8E0F0E0F0936100E093D6
:1003C000600080E190E090938F0080938E00B09960
:1003D0000AC0F0926100E0926000E4E1F0E0F09386
:1003E0008F00E0938E0061E070E081E090E00E9479
:1003F000E00080919A0090919B0097FF03C0919537
:10040000819591099F938F9380919D008F93809107
:100410009C008F93809163008F93809162008F93F3
:1004200084E690E09F938F931F930F930E942D0477
:1004300068010FB6F894DEBF0FBECDBF4801F401CE
:1004400081914F01082E000C990B0E94D4008A1450
:100450009B04A9F761E070E082E090E00E94E00078
:10046000809198009091990097FF03C09195819594
:1004700091099F938F9380919F008F9380919E000D
:100480008F93809161008F93809160008F933F9252
:100490002F921F930F930E942D040FB6F894DEBF86
:1004A0000FBECDBFF60181916F01082E000C990B94
:1004B0000E94D400CA14DB04A9F784EF91E00E94E3
:1004C0004900D0CE97FB072E16F4009407D077FD95
:1004D00009D00E94760207FC05D03EF490958195E4
:1004E0009F4F0895709561957F4F0895AA1BBB1B80
:1004F00051E107C0AA1FBB1FA617B70710F0A61B24
:10050000B70B881F991F5A95A9F780959095BC0144
:10051000CD0108950E949E020C9486030E947F03E1
:1005200058F00E94780340F029F45F3F29F00C94C2
:100530006F0351110C94BA030C9475030E94970336
:1005400068F39923B1F3552391F3951B550BBB2702
:10055000AA2762177307840738F09F5F5F4F220F47
:10056000331F441FAA1FA9F335D00E2E3AF0E0E83E
:1005700032D091505040E695001CCAF72BD0FE2F88
:1005800029D0660F771F881FBB1F2617370748071C
:10059000AB07B0E809F0BB0B802DBF01FF279358D4
:1005A0005F4F3AF09E3F510578F00C946F030C9426
:1005B000BA035F3FE4F3983ED4F386957795679549
:1005C000B795F7959F5FC9F7880F911D9695879509
:1005D00097F90895E1E0660F771F881FBB1F621728
:1005E00073078407BA0720F0621B730B840BBA0BE6
:1005F000EE1F88F7E09508950E9403036894B111F7
:100600000C94BA0308950E949F0388F09F5798F0B6
:10061000B92F9927B751B0F0E1F0660F771F881F07
:10062000991F1AF0BA95C9F714C0B13091F00E9421
:10063000B903B1E008950C94B903672F782F882788
:10064000B85F39F0B93FCCF3869577956795B39548
:10065000D9F73EF490958095709561957F4F8F4FB7
:100660009F4F0895E89409C097FB3EF490958095BC
:10067000709561957F4F8F4F9F4F9923A9F0F92F68
:1006800096E9BB279395F695879577956795B795E6
:10069000F111F8CFFAF4BB0F11F460FF1BC06F5FCC
:1006A0007F4F8F4F9F4F16C0882311F096E911C0DE
:1006B000772321F09EE8872F762F05C0662371F0FF
:1006C00096E8862F70E060E02AF09A95660F771F13
:1006D000881FDAF7880F9695879597F9089597F907
:1006E0009F6780E870E060E008959FEF80EC0895D8
:1006F00000240A9416161706180609060895002401
:100700000A9412161306140605060895092E03947A
:10071000000C11F4882352F0BB0F40F4BF2B11F4EE
:1007200060FF04C06F5F7F4F8F4F9F4F089557FD4D
:100730009058440F551F59F05F3F71F04795880F4F
:1007400097FB991F61F09F3F79F0879508951216E6
:1007500013061406551FF2CF4695F1DF08C0161692
:1007600017061806991FF1CF869571056105089443
:100770000895E894BB2766277727CB0197F908955A
:100780000E94D3030C9486030E94780338F00E94E1
:100790007F0320F0952311F00C946F030C947503E4
:1007A00011240C94BA030E94970370F3959FC1F330
:1007B000950F50E0551F629FF001729FBB27F00D0F
:1007C000B11D639FAA27F00DB11DAA1F649F662764
:1007D000B00DA11D661F829F2227B00DA11D621FB3
:1007E000739FB00DA11D621F839FA00D611D221F6D
:1007F000749F3327A00D611D231F849F600D211D51
:10080000822F762F6A2F11249F5750409AF0F1F0D3
:1008100088234AF0EE0FFF1FBB1F661F771F881F3C
:1008200091505040A9F79E3F510580F00C946F0302
:100830000C94BA035F3FE4F3983ED4F38695779522
:100840006795B795F795E7959F5FC1F7FE2B880FE2
:10085000911D9695879597F90895AEE0B0E0E3E392
:10086000F4E00C94EE060D891E8986E08C831A83D1
:1008700009838FEF9FE79E838D83AE01475E5F4FB5
:100880006F89788DCE0101960E944F04EF81F88523
:10089000E00FF11F10822E96E4E00C940A07ABE003
:1008A000B0E0E5E5F4E00C94E0066C017B018A0120
:1008B000FC0117821682838181FFCCC1CE01019693
:1008C0003C01F6019381F70193FD859193FF81919E
:1008D0007F01882309F4BAC1853239F493FD8591EB
:1008E00093FF81917F01853229F4B60190E00E9447
:1008F0004606E7CF912C212C312CFFE1F315D8F0DF
:100900008B3279F038F4803279F08332A1F4232DE0
:1009100020611DC08D3261F0803369F4232D216088
:1009200016C0832D8260382EE32DE4603E2E2AC04F
:10093000F32DF8601DC037FC2DC020ED280F2A30A4
:1009400040F08E32B9F436FC81C1232D2064322E62
:1009500019C036FE06C08AE0989E200D1124922E02
:1009600011C0EAE02E9E200D1124222EF32DF062FC
:100970003F2E08C08C3621F4832D8068382E02C0AB
:10098000883641F4F70193FD859193FF81917F01B2
:100990008111B3CF982F9F7D9554933028F40C5F2D
:1009A0001F4F9FE399830DC0833631F0833771F079
:1009B000833509F059C021C0F801808189830E5F19
:1009C0001F4F88248394912C530113C02801F2E017
:1009D0004F0E511CF801A080B18036FE03C0692D76
:1009E00070E002C06FEF7FEFC5010E943B064C0133
:1009F0008201F32DFF773F2E16C0280122E0420E20
:100A0000511CF801A080B18036FE03C0692D70E052
:100A100002C06FEF7FEFC5010E9430064C01F32D3D
:100A2000F0683F2E820133FC1BC0822D90E08816B7
:100A30009906B0F4B60180E290E00E9446062A943E
:100A4000F4CFF50137FC859137FE81915F01B60146
:100A500090E00E94460621102A9421E0821A910813
:100A60008114910471F7E8C0843611F0893641F59C
:100A7000F80137FE07C060817181828193810C5F2C
:100A80001F4F08C060817181072E000C880B990BE5
:100A90000E5F1F4FF32DFF763F2E97FF09C09095F5
:100AA0008095709561957F4F8F4F9F4FF0683F2ED7
:100AB0002AE030E0A3010E948206882E861845C0F5
:100AC000853731F4232D2F7EB22E2AE030E025C069
:100AD000932D997FB92E8F36C1F018F4883579F0AF
:100AE000B5C0803719F0883721F0B0C0E92FE06138
:100AF000BE2EB4FE0DC0FB2DF460BF2E09C034FE27
:100B00000AC0292F2660B22E06C028E030E005C0BA
:100B100020E130E002C020E132E0F801B7FE07C07A
:100B200060817181828193810C5F1F4F06C060815B
:100B3000718180E090E00E5F1F4FA3010E9482064A
:100B4000882E8618FB2DFF773F2E36FE0DC0232DF5
:100B50002E7FA22E891458F434FE0BC032FC09C03B
:100B6000832D8E7EA82E05C0B82CA32C03C0B82CD4
:100B700001C0B92CA4FE0FC0FE01E80DF11D80815B
:100B8000803321F49A2D997EA92E09C0A2FE06C0B9
:100B9000B394B39404C08A2D867809F0B394A3FC6F
:100BA00011C0A0FE06C0B21488F4280C922C9B1829
:100BB0000EC0B21460F4B60180E290E00E944606D6
:100BC000B394F7CFB21418F42B1802C0982C212C30
:100BD000A4FE10C0B60180E390E00E944606A2FE8B
:100BE00017C0A1FC03C088E790E002C088E590E050
:100BF000B6010CC08A2D867859F0A1FE02C08BE2A6
:100C000001C080E2A7FC8DE2B60190E00E9446069A
:100C1000891438F4B60180E390E00E9446069A9465
:100C2000F7CF8A94F301E80DF11D8081B60190E0C1
:100C30000E9446068110F5CF222009F442CEB6016B
:100C400080E290E00E9446062A94F6CFF601868163
:100C5000978102C08FEF9FEF2B96E2E10C94FC0688
:100C6000FC010590615070400110D8F78095909577
:100C70008E0F9F1F0895FC0161507040019001107C
:100C8000D8F7809590958E0F9F1F08950F931F930F
:100C9000CF93DF93FB01238121FD03C08FEF9FEFF3
:100CA0002CC022FF16C0468157812481358142170E
:100CB000530744F4A081B1819D012F5F3F4F3183E1
:100CC00020838C93268137812F5F3F4F3783268384
:100CD00014C08B01EC01FB010084F185E02D099526
:100CE000892BE1F6D80116968D919C911797019664
:100CF00017969C938E931697CE01DF91CF911F91FB
:100D00000F910895FA01AA27283051F1203181F17D
:100D1000E8946F936E7F6E5F7F4F8F4F9F4FAF4F03
:100D2000B1E03ED0B4E03CD0670F781F891F9A1F16
:100D3000A11D680F791F8A1F911DA11D6A0F711DCA
:100D4000811D911DA11D20D009F468943F912AE0D6
:100D5000269F11243019305D3193DEF6CF010895BE
:100D6000462F4770405D4193B3E00FD0C9F7F6CFEF
:100D7000462F4F70405D4A3318F0495D31FD4052B7
:100D8000419302D0A9F7EACFB4E0A695979587954D
:100D900077956795BA95C9F700976105710508952C
:100DA0009B01AC010A2E06945795479537952795D8
:100DB000BA95C9F7620F731F841F951FA01D089570
:100DC0002F923F924F925F926F927F928F929F925B
:100DD000AF92BF92CF92DF92EF92FF920F931F9349
:100DE000CF93DF93CDB7DEB7CA1BDB0B0FB6F894FA
:100DF000DEBF0FBECDBF09942A88398848885F843A
:100E00006E847D848C849B84AA84B984C884DF80AA
:100E1000EE80FD800C811B81AA81B981CE0FD11D8E
:100E20000FB6F894DEBF0FBECDBFED010895F89464
:020E3000FFCFF2
:100E32000800280053503D2532642050563D25338A
:100E4200642E25316425252000483D25326420206A
:0E0E520020453D2533642E25316425252000E2
:00000001FF
