:100000000C942A000C9447000C9447000C94470071
:100010000C9447000C9447000C9447000C94470044
:100020000C9447000C9447000C9447000C94470034
:100030000C9447000C9447000C9447000C94470024
:100040000C9447000C9447000C9447000C94470014
:100050000C94470011241FBECFE5D8E0DEBFCDBF12
:1000600010E0A0E6B0E0E0E3FEE002C005900D92F3
:10007000A039B107D9F720E0A0E9B0E001C01D9296
:10008000A03AB207E1F70E94FF000C9416070C9407
:100090000000CF93DF9300D000D0CDB7DEB7198238
:1000A0001A821B821C82092E000CAA0BBB0B4981F1
:1000B0005A816B817C81481759076A077B0798F43E
:1000C000EFECF7E03197F1F700C0000049815A8169
:1000D0006B817C814F5F5F4F6F4F7F4F49835A83A6
:1000E0006B837C83E4CF0F900F900F900F90DF9184
:1000F000CF910895CF93DF9300D000D0CDB7DEB776
:1001000019821A821B821C82092E000CAA0BBB0BBF
:1001100049815A816B817C81481759076A077B079F
:1001200088F422E02A95F1F700C049815A816B8159
:100130007C814F5F5F4F6F4F7F4F49835A836B8343
:100140007C83E6CF0F900F900F900F90DF91CF91AF
:100150000895A898A998AA9A88E382BBAA988FEED6
:1001600090E00197F1F700C00000AA9A8EE082BBF0
:10017000AA988FEE90E00197F1F700C00000AA9ACC
:1001800086E082BBAA988FEE90E00197F1F700C05D
:1001900000000895A898A998AA9A81E082BBAA981D
:1001A00088E790E00C944900A89AA998AA9A82BB83
:1001B000AA988FEE90E00197F1F700C00000089533
:1001C000CF93DF93D82FC62FA898A998AA9A81E039
:1001D00090E00E94490080E4D89FC00D1124C15CCA
:1001E000C2BB81E090E00E944900AA988FEE90E0A7
:1001F0000197F1F700C00000DF91CF910895CF93F0
:10020000DF93CDB7DEB760970FB6F894DEBF0FBEB1
:10021000CDBF8FEF81BB12BA84BB15BA17BA88BBAA
:100220002FEF84E39CE0215080409040E1F700C034
:1002300000000E94A9000E94CA0080E487B980EEF5
:1002400086B90AE010E0E2E34E2E512CF6E62F2E9E
:10025000F0E03F2EFE0131967F014E01F1E18F0E5D
:10026000911CABE76A2EA0E07A2E369A3699FECF23
:1002700064B175B180E090E00E9431036093920018
:1002800070939300809394009093950020E030EC5D
:100290004FE754E40E94890220E030E04AE754E44A
:1002A0000E94BF030E94FB025B016C0170939700E8
:1002B00060939600CB01B8010E94610270939D008B
:1002C00060939C0090939B0080939A00209164001F
:1002D000309165002A193B093093910020939000DA
:1002E000C901B8010E94610270939F0060939E0053
:1002F00090939900809398008091600090916100A4
:1003000097FD019695958795409162005091630005
:10031000840F951F8217930714F42FEE25BB80914D
:100320006000909161002091900030919100AC01AB
:1003300097FF02C04F5F5F4F5595479524173507CC
:100340005CF497FD01969595879591958195910916
:10035000821793070CF415BA8091600090916100A8
:1003600097FD019695958795919581959109209195
:10037000620030916300821B930B209190003091BA
:1003800091002817390714F487EF85BBB39904C08F
:100390005092650040926400B29906C0E8E2F0E035
:1003A000F0936500E0936400B1990CC088E090E0A0
:1003B0009093630080936200E0E1F0E0F0936100CD
:1003C000E0936000B0990AC010936300009362004C
:1003D00084E190E0909361008093600061E070E0C0
:1003E00081E090E00E94E00080919A0090919B0053
:1003F00097FF03C09195819591099F938F93809169
:100400009D008F9380919C008F93809164009091C8
:100410006500B8010E9461027F936F933F922F9213
:10042000FF92EF920E942C0467010FB6F894DEBF92
:100430000FBECDBF5701F50181915F01082E000C61
:10044000990B0E94D400A814B904A9F761E070E0E8
:1004500082E090E00E94E0008091980090919900E5
:1004600097FF03C09195819591099F938F938091F8
:100470009F008F9380919E008F9380916200909156
:100480006300B8010E9461027F936F937F926F9225
:10049000FF92EF920E942C040FB6F894DEBF0FBEBD
:1004A000CDBFF60181916F01082E000C990B0E94BF
:1004B000D400C814D904A9F784EF91E00E94490040
:1004C000D4CE97FB072E16F4009407D077FD09D001
:1004D0000E94750207FC05D03EF4909581959F4FD0
:1004E0000895709561957F4F0895AA1BBB1B51E13C
:1004F00007C0AA1FBB1FA617B70710F0A61BB70B94
:10050000881F991F5A95A9F780959095BC01CD0138
:1005100008950E949D020C9485030E947E0358F06A
:100520000E94770340F029F45F3F29F00C946E039A
:1005300051110C94B9030C9474030E94960368F350
:100540009923B1F3552391F3951B550BBB27AA278C
:1005500062177307840738F09F5F5F4F220F331FC6
:10056000441FAA1FA9F335D00E2E3AF0E0E832D08E
:1005700091505040E695001CCAF72BD0FE2F29D091
:10058000660F771F881FBB1F261737074807AB0763
:10059000B0E809F0BB0B802DBF01FF2793585F4FD8
:1005A0003AF09E3F510578F00C946E030C94B90319
:1005B0005F3FE4F3983ED4F3869577956795B795BA
:1005C000F7959F5FC9F7880F911D9695879597F9C5
:1005D0000895E1E0660F771F881FBB1F621773073E
:1005E0008407BA0720F0621B730B840BBA0BEE1F53
:1005F00088F7E09508950E9402036894B1110C9465
:10060000B90308950E949E0388F09F5798F0B92F70
:100610009927B751B0F0E1F0660F771F881F991F37
:100620001AF0BA95C9F714C0B13091F00E94B8031E
:10063000B1E008950C94B803672F782F8827B85F2E
:1006400039F0B93FCCF3869577956795B395D9F78F
:100650003EF490958095709561957F4F8F4F9F4F99
:100660000895E89409C097FB3EF4909580957095A5
:1006700061957F4F8F4F9F4F9923A9F0F92F96E9EE
:10068000BB279395F695879577956795B795F11163
:10069000F8CFFAF4BB0F11F460FF1BC06F5F7F4F00
:1006A0008F4F9F4F16C0882311F096E911C0772312
:1006B00021F09EE8872F762F05C0662371F096E81B
:1006C000862F70E060E02AF09A95660F771F881FEA
:1006D000DAF7880F9695879597F9089597F99F67A8
:1006E00080E870E060E008959FEF80EC08950024BA
:1006F0000A941616170618060906089500240A9487
:1007000012161306140605060895092E0394000C0C
:1007100011F4882352F0BB0F40F4BF2B11F460FF9B
:1007200004C06F5F7F4F8F4F9F4F089557FD9058C4
:10073000440F551F59F05F3F71F04795880F97FBA5
:10074000991F61F09F3F79F087950895121613065F
:100750001406551FF2CF4695F1DF08C0161617068E
:100760001806991FF1CF86957105610508940895C3
:10077000E894BB2766277727CB0197F908950E9455
:10078000D2030C9485030E94770338F00E947E0305
:1007900020F0952311F00C946E030C947403112433
:1007A0000C94B9030E94960370F3959FC1F3950FC3
:1007B00050E0551F629FF001729FBB27F00DB11DE5
:1007C000639FAA27F00DB11DAA1F649F6627B00D75
:1007D000A11D661F829F2227B00DA11D621F739F5E
:1007E000B00DA11D621F839FA00D611D221F749F6C
:1007F0003327A00D611D231F849F600D211D822FB3
:10080000762F6A2F11249F5750409AF0F1F08823D9
:100810004AF0EE0FFF1FBB1F661F771F881F915006
:100820005040A9F79E3F510580F00C946E030C9444
:10083000B9035F3FE4F3983ED4F3869577956795C7
:10084000B795F795E7959F5FC1F7FE2B880F911D30
:100850009695879597F90895AEE0B0E0E2E3F4E06D
:100860000C94ED060D891E8986E08C831A8309831A
:100870008FEF9FE79E838D83AE01475E5F4F6F8949
:10088000788DCE0101960E944E04EF81F885E00F2D
:10089000F11F10822E96E4E00C940907ABE0B0E063
:1008A000E4E5F4E00C94DF066C017B018A01FC01B5
:1008B00017821682838181FFCCC1CE0101963C0153
:1008C000F6019381F70193FD859193FF81917F015B
:1008D000882309F4BAC1853239F493FD859193FFD9
:1008E00081917F01853229F4B60190E00E9445068E
:1008F000E7CF912C212C312CFFE1F315D8F08B326E
:1009000079F038F4803279F08332A1F4232D20611C
:100910001DC08D3261F0803369F4232D216016C033
:10092000832D8260382EE32DE4603E2E2AC0F32D05
:10093000F8601DC037FC2DC020ED280F2A3040F094
:100940008E32B9F436FC81C1232D2064322E19C0B9
:1009500036FE06C08AE0989E200D1124922E11C00A
:10096000EAE02E9E200D1124222EF32DF0623F2E60
:1009700008C08C3621F4832D8068382E02C088365A
:1009800041F4F70193FD859193FF81917F018111DE
:10099000B3CF982F9F7D9554933028F40C5F1F4F51
:1009A0009FE399830DC0833631F0833771F083352F
:1009B00009F059C021C0F801808189830E5F1F4F63
:1009C00088248394912C530113C02801F2E04F0E28
:1009D000511CF801A080B18036FE03C0692D70E083
:1009E00002C06FEF7FEFC5010E943A064C01820101
:1009F000F32DFF773F2E16C0280122E0420E511C36
:100A0000F801A080B18036FE03C0692D70E002C0FD
:100A10006FEF7FEFC5010E942F064C01F32DF068A8
:100A20003F2E820133FC1BC0822D90E08816990670
:100A3000B0F4B60180E290E00E9445062A94F4CF1B
:100A4000F50137FC859137FE81915F01B60190E099
:100A50000E94450621102A9421E0821A91088114EF
:100A6000910471F7E8C0843611F0893641F5F80138
:100A700037FE07C060817181828193810C5F1F4FB7
:100A800008C060817181072E000C880B990B0E5FE6
:100A90001F4FF32DFF763F2E97FF09C0909580954D
:100AA000709561957F4F8F4F9F4FF0683F2E2AE0E2
:100AB00030E0A3010E948106882E861845C0853744
:100AC00031F4232D2F7EB22E2AE030E025C0932D65
:100AD000997FB92E8F36C1F018F4883579F0B5C0FA
:100AE000803719F0883721F0B0C0E92FE061BE2EC1
:100AF000B4FE0DC0FB2DF460BF2E09C034FE0AC049
:100B0000292F2660B22E06C028E030E005C020E183
:100B100030E002C020E132E0F801B7FE07C060819A
:100B20007181828193810C5F1F4F06C0608171814A
:100B300080E090E00E5F1F4FA3010E948106882E87
:100B40008618FB2DFF773F2E36FE0DC0232D2E7FFE
:100B5000A22E891458F434FE0BC032FC09C0832D38
:100B60008E7EA82E05C0B82CA32C03C0B82C01C0C3
:100B7000B92CA4FE0FC0FE01E80DF11D8081803369
:100B800021F49A2D997EA92E09C0A2FE06C0B39425
:100B9000B39404C08A2D867809F0B394A3FC11C0E5
:100BA000A0FE06C0B21488F4280C922C9B180EC02C
:100BB000B21460F4B60180E290E00E944506B3945E
:100BC000F7CFB21418F42B1802C0982C212CA4FED5
:100BD00010C0B60180E390E00E944506A2FE17C057
:100BE000A1FC03C088E790E002C088E590E0B60170
:100BF0000CC08A2D867859F0A1FE02C08BE201C09C
:100C000080E2A7FC8DE2B60190E00E9445068914BF
:100C100038F4B60180E390E00E9445069A94F7CF3D
:100C20008A94F301E80DF11D8081B60190E00E94E5
:100C300045068110F5CF222009F442CEB60180E2AC
:100C400090E00E9445062A94F6CFF60186819781AE
:100C500002C08FEF9FEF2B96E2E10C94FB06FC01A4
:100C60000590615070400110D8F7809590958E0FD7
:100C70009F1F0895FC016150704001900110D8F74A
:100C8000809590958E0F9F1F08950F931F93CF937C
:100C9000DF93FB01238121FD03C08FEF9FEF2CC069
:100CA00022FF16C0468157812481358142175307A0
:100CB00044F4A081B1819D012F5F3F4F3183208398
:100CC0008C93268137812F5F3F4F3783268314C053
:100CD0008B01EC01FB010084F185E02D0995892B46
:100CE000E1F6D80116968D919C911797019617966B
:100CF0009C938E931697CE01DF91CF911F910F9108
:100D00000895FA01AA27283051F1203181F1E894A1
:100D10006F936E7F6E5F7F4F8F4F9F4FAF4FB1E0EE
:100D20003ED0B4E03CD0670F781F891F9A1FA11DE9
:100D3000680F791F8A1F911DA11D6A0F711D811DEA
:100D4000911DA11D20D009F468943F912AE0269FAF
:100D500011243019305D3193DEF6CF010895462F0E
:100D60004770405D4193B3E00FD0C9F7F6CF462FEF
:100D70004F70405D4A3318F0495D31FD4052419358
:100D800002D0A9F7EACFB4E0A69597958795779515
:100D90006795BA95C9F700976105710508959B019C
:100DA000AC010A2E06945795479537952795BA9525
:100DB000C9F7620F731F841F951FA01D08952F92FE
:100DC0003F924F925F926F927F928F929F92AF92DB
:100DD000BF92CF92DF92EF92FF920F931F93CF9328
:100DE000DF93CDB7DEB7CA1BDB0B0FB6F894DEBFBF
:100DF0000FBECDBF09942A88398848885F846E84E5
:100E00007D848C849B84AA84B984C884DF80EE802E
:100E1000FD800C811B81AA81B981CE0FD11D0FB637
:100E2000F894DEBF0FBECDBFED010895F894FFCF5B
:100E3000A0005000900153503D2532642050563D93
:100E40002533642E25316425252000483D25326454
:100E5000202020453D2533642E25316425252000A2
:00000001FF
